:100000000C9464000C948C000C948C000C948C0068
:100010000C948C000C948C000C948C000C94970322
:100020000C948C000C948C000C948C000C948C0020
:100030000C948C000C948C000C948C000C948C0010
:100040000C94C0030C948C000C94D4050C941006F2
:100050000C948C000C948C000C948C000C948C00F0
:100060000C948C000C948C0000000007000201002E
:100070000003040600000000000000000102040864
:100080001020408001020408102001020408102002
:10009000040404040404040402020202020203032E
:1000A00003030303000000002300260029000000D2
:1000B0000000250028002B0000000000240027007D
:1000C0002A003C01A002CB0611241FBECFEFD8E0CE
:1000D000DEBFCDBF11E0A0E0B1E0E0E8F0E102C09A
:1000E00005900D92AA31B107D9F711E0AAE1B1E06C
:1000F00001C01D92A43EB107E1F710E0C8ECD0E0CA
:1001000004C02297FE010E943A08C23CD107C9F7F9
:100110000E941B070C943E080C94000040E855E236
:1001200060E070E08DE391E00E944B0664E68AE1B6
:1001300091E00E94890264E68CE191E00E948902CC
:1001400061E08AE191E00E94270261E08CE191E0A8
:100150000C942702CF93DF9362E370E080E090E09D
:100160000E9434048EE191E00E94660369E370E02E
:100170000E940208EB0164E68AE191E00E94890294
:1001800064E68CE191E00E94890260E071E08DE319
:1001900091E00E9460074AE050E0BE018DE391E0EB
:1001A0000E94FC0767E071E08DE391E00E947F0709
:1001B00064E08AE191E00E94270264E08CE191E032
:1001C0000E9427022197639708F04AC062E08AE103
:1001D00091E00E94270262E08CE191E00E942702F8
:1001E000C4E66AE070E080E090E00E9434046C2F86
:1001F0008AE191E00E9489026C2F8CE191E00E94DB
:100200008902CF5FC83C69F76AE070E080E090E067
:100210000E9434046C2F8AE191E00E9489026C2FC5
:100220008CE191E00E948902C150C23369F762E01B
:100230008AE191E00E94270261E08CE191E00E9456
:10024000270268EE73E080E090E00E94340464E0EE
:100250008AE191E00E94270264E08CE191E008C00D
:1002600061E08CE191E00E94270261E08AE191E087
:10027000DF91CF910C94270228EC30E04DE062E052
:100280008EE191E00E94A30243E062E08CE191E004
:100290000E94C70143E061E08AE191E00C94C7014C
:1002A00084B5836884BD17BC61E086E00C94C90402
:1002B00084B5836284BD18BC61E085E00C94C904F8
:1002C000CF93DF9360E08CE00E94010560E088E05E
:1002D0000E940105C7E0D0E060E084E00E940105D3
:1002E0008091300190E00C2E02C0959587950A947C
:1002F000E2F780FF02C061E001C060E088E00E9498
:10030000010561E084E00E940105219728F761E082
:100310008CE0DF91CF910C940105CF93DF93EC013A
:1003200061E08CE00E94C90461E087E00E94C9049A
:1003300061E088E00E94C90461E084E00E94C90491
:1003400010923001CE010E94600160E087E0DF91F1
:10035000CF910C940105E0EBF0E0908193689083DD
:1003600087708093B1001092B30061E08BE00C9431
:10037000C904E0EBF0E090819362908387708093F2
:10038000B1001092B40061E083E00C94C9041F93A3
:10039000CF93DF931F92CDB7DEB7FC01142F60839C
:1003A000418381E391E069830E948D01698162301C
:1003B000D9F020F4613009F045C006C0633021F166
:1003C000643009F03FC02FC080913001837F80935B
:1003D000300181E391E00E946001812F0F90DF9155
:1003E000CF911F910C94AB01809130018D7E809351
:1003F000300181E391E00E946001812F0F90DF9135
:10040000CF911F910C94B901809130018F75809329
:10041000300181E391E00E9460010F90DF91CF9164
:100420001F910C945001809130018E7B809330019C
:1004300081E391E00E9460010F90DF91CF911F91C5
:100440000C9458010F90DF91CF911F910895FC01FA
:1004500080818230A1F020F4813009F059C006C0BB
:10046000833039F0843009F053C006C073E0E2E015
:1004700008C077E0E5E005C076E0E0E002C074E0A7
:10048000E1E06230D1F0643069F1613009F040C0E0
:1004900041E050E09A01072E01C0220F0A94EAF7CA
:1004A00020950E2E01C0440F0A94EAF78091300186
:1004B000842B28232093300127C021E030E0A901BC
:1004C0000E2E01C0440F0A94EAF740958091300146
:1004D0004823072E01C0220F0A94EAF7422B4093CB
:1004E000300112C081E090E0AC0101C0440FEA95F8
:1004F000EAF701C0880F7A95EAF7842B80959091EE
:10050000300198239093300181E391E00C946001D5
:100510000895FC018081823061F018F4813079F413
:1005200005C0833049F0843051F408C06093B300B3
:1005300008956093B400089567BD089568BD089557
:10054000109231010895DC01862F90E0FC01E458FF
:10055000FF4FE4911496EC93149750E0FA01E4589D
:10056000FF4FE4911596EC931597FC01E057FF4F70
:10057000849190E0880F991FFC01E255FF4F65912F
:10058000749116966C93169717967C931797FA01A9
:10059000E057FF4FE491F0E0EE0FFF1FEC55FF4FE7
:1005A000459154911A964C931A971B965C931B97FE
:1005B00088549F4FFC018591949118968C931897BD
:1005C00019969C931997C901853F21E0920714F071
:1005D00084EF91E049E3489F9001499F300D112439
:1005E000245E3F4F1D963C932E931C9708950F93C6
:1005F0001F93CF93DF93EC01E885F98580819C817F
:10060000892B8083EE81FF8190818C818095892365
:10061000808384E090E00E945A04EE81FF81808113
:100620009C81892B80838AE090E00E945A04EE81AD
:10063000FF8190818C81809589238083E885F9856D
:1006400090818C818095892380830E940A04605B5D
:10065000794B8F4F9F4F6E877F87888B998BEA8569
:10066000FB8580819D818923B9F00E940A040E8553
:100670001F8528893989061717072807390778F74A
:100680000BC00E940A040E851F8528893989061728
:10069000170728073907A0F0EA85FB8580819D812F
:1006A000892379F30E940A042C853D85620F731F0C
:1006B000811D911D6E877F87888B998B81E001C09A
:1006C00080E0DF91CF911F910F9108950F931F93B9
:1006D000CF93DF93EC010E94F702882339F0EA857B
:1006E000FB8580819D81892321F40FC020E030E0CB
:1006F00018C00E940A040E851F85288939890617AB
:1007000017072807390758F7F1CF0E940A042C85EC
:100710003D85255031094E855F85241B350B260FFD
:10072000371FC901DF91CF911F910F9108951F923B
:100730000F920FB60F9211242F933F934F935F9315
:100740006F937F938F939F93AF93BF93EF93FF9399
:10075000E0913201F0913301309709F00995FF9152
:10076000EF91BF91AF919F918F917F916F915F9129
:100770004F913F912F910F900FBE0F901F901895A2
:100780001F920F920FB60F9211242F933F938F93C6
:100790009F93AF93BF938091340190913501A091C5
:1007A0003601B091370130913C01232F2D5F2D3759
:1007B00020F40196A11DB11D05C0232F2A570296D2
:1007C000A11DB11D20933C0180933401909335010C
:1007D000A0933601B093370180913801909139018F
:1007E000A0913A01B0913B010196A11DB11D8093EA
:1007F000380190933901A0933A01B0933B01BF9126
:10080000AF919F918F913F912F910F900FBE0F90BD
:100810001F9018950F931F939FB7F894009138017C
:100820001091390120913A0130913B0186B5A89B86
:1008300006C08F3F21F00F5F1F4F2F4F3F4F9FBFCD
:10084000322F212F102F0027080F111D211D311DC0
:1008500042E0000F111F221F331F4A95D1F7B80144
:10086000C9011F910F910895CF92DF92EF92FF92ED
:10087000CF93DF936B017C010E940A04EB010EC051
:100880000E940A046C1B7D0B683E734038F081E0C7
:10089000C81AD108E108F108C851DC4FC114D104CD
:1008A000E104F10469F7DF91CF91FF90EF90DF90C1
:1008B000CF900895019739F0880F991F880F991FDD
:1008C00002970197F1F70895789484B5826084BD0A
:1008D00084B5816084BD85B5826085BD85B5816044
:1008E00085BDEEE6F0E0808181608083E1E8F0E0A4
:1008F0001082808182608083808181608083E0E8D3
:10090000F0E0808181608083E1EBF0E080818460B1
:100910008083E0EBF0E0808181608083EAE7F0E0B3
:100920008081846080838081826080838081816017
:1009300080838081806880831092C1000895833015
:1009400069F028F48130A1F0823011F514C08630AE
:10095000B1F08730C1F08430D9F404C080918000B8
:100960008F7703C0809180008F7D809380000895F1
:1009700084B58F7702C084B58F7D84BD0895809142
:10098000B0008F7703C08091B0008F7D8093B0005E
:100990000895CF93DF9390E0FC01E458FF4F44911A
:1009A000FC01E057FF4F8491882341F190E0880FCC
:1009B000991FFC01E854FF4F25913491D9018255CC
:1009C0009F4FFC0185919491C82FD92F9FB7F89420
:1009D0008C91611106C0409584238C938881842377
:1009E00008C0623041F4242F209582238C938881A3
:1009F000842B888302C0842B8C939FBFDF91CF917F
:100A000008950F931F93CF93DF931F92CDB7DEB757
:100A1000282F30E0F901E859FF4F8491F901E4589B
:100A2000FF4F1491F901E057FF4F04910023D1F0DB
:100A3000882321F069830E949F046981E02FF0E000
:100A4000EE0FFF1FE255FF4F85919491DC019FB798
:100A5000F8948C91611103C01095812301C0812B02
:100A60008C939FBF0F90DF91CF911F910F910895AD
:100A7000FC0184859585FC01E05CFF4F208131817C
:100A8000FC01EE5BFF4F80819181281B390B2F7396
:100A90003327C9010895FC0184859585FC01E05C3C
:100AA000FF4F40815181FC01EE5BFF4F208131817E
:100AB0004217530741F00190F081E02DE80FF91F34
:100AC000208130E002C02FEF3FEFC9010895FC0103
:100AD00084859585FC01E05CFF4F40815181FC01DC
:100AE000EE5BFF4F208131814217530781F0A081D7
:100AF000B181A80FB91F8C91208131812F5F3F4FA9
:100B00002F73332731832083282F30E002C02FEF4B
:100B10003FEFC9010895FC0186859785FC01E05CE3
:100B2000FF4FDC01AE5BBF4F408151812D913C9165
:100B3000119742175307C1F70895CF93DF93FC0134
:100B400086859785DC01A05CBF4F2D913C91119764
:100B50002F5F3F4F2F733327EC01CE5BDF4F488170
:100B6000598124173507D9F30D90BC91A02DA80FFA
:100B7000B91F6C93A685B785A05CBF4F11963C93B7
:100B80002E93A689B7892C9181E090E0058C02C054
:100B9000880F991F0A94E2F7282B2C9381E090E0AC
:100BA000DF91CF91089508951F920F920FB60F9283
:100BB00011242F933F934F938F939F93EF93FF9322
:100BC0004091C6008091E0019091E10101968F7300
:100BD00099272091E2013091E3018217930759F0A0
:100BE000E091E001F091E101E056FE4F40839093E7
:100BF000E1018093E001FF91EF919F918F914F91DF
:100C00003F912F910F900FBE0F901F9018958DE37D
:100C100091E00E943805892B11F00C94D3050895BA
:100C20001F920F920FB60F9211242F933F938F9321
:100C30009F93EF93FF9320919C0130919D018091B0
:100C40009E0190919F012817390731F48091C100CE
:100C50008F7D8093C10014C0E0919E01F0919F01AF
:100C6000E45AFE4F208180919E0190919F01019650
:100C70008F73992790939F0180939E012093C600C4
:100C8000FF91EF919F918F913F912F910F900FBE08
:100C90000F901F901895CF92DF92EF92FF92CF9313
:100CA000DF93EC016A017B01411581EE5807610574
:100CB0007105F9F0EC89FD8981E090E00E8C02C0AD
:100CC000880F991F0A94E2F7808360E079E08DE352
:100CD00090E0A70196010E941608215031094109B0
:100CE00051095695479537952795211580E1380785
:100CF00098F0EC89FD89108260E874E88EE190E05C
:100D0000A70196010E941608215031094109510995
:100D10005695479537952795E889F9893083EA896B
:100D2000FB892083EE89FF89408181E090E09C016E
:100D30000A8C02C0220F331F0A94E2F7422B408331
:100D4000EE89FF8940819C010B8C02C0220F331F6A
:100D50000A94E2F7422B4083EE89FF8940819C018F
:100D60000C8C02C0220F331F0A94E2F7422B4083FF
:100D7000EE89FF8920810D8C02C0880F991F0A948B
:100D8000E2F7809582238083DF91CF91FF90EF90EF
:100D9000DF90CF9008951092400110923F0188EEAD
:100DA00093E0A0E0B0E08093410190934201A093D2
:100DB0004301B09344018EE091E090933E01809313
:100DC0003D0180EA91E090934A01809349018CE5CE
:100DD00091E090934C0180934B0185EC90E09093CF
:100DE0004E0180934D0184EC90E0909350018093EC
:100DF0004F0180EC90E0909352018093510181EC7F
:100E000090E0909354018093530186EC90E090938E
:100E100056018093550184E08093570183E08093CD
:100E2000580187E08093590185E080935A0181E061
:100E300080935B0108950E9464040E948E00C7E0C5
:100E4000D6E00E94AA002097E1F30E940706F9CF9E
:100E5000CF92DF92EF92FF920F931F93CF93DF9386
:100E60006C01EB017A01E60EF71E00E010E00BC00A
:100E70006991D601ED91FC910190F081E02DC601C0
:100E80000995080F191FCE15DF0591F7C801DF91ED
:100E9000CF911F910F91FF90EF90DF90CF90089529
:100EA000DB010D900020E9F7AD0141505109461BCF
:100EB000570BDC01ED91FC910280F381E02D099448
:100EC0000C945007DC01ED91FC910190F081E02D34
:100ED00009940F931F93CF93DF93EC016DE00E9471
:100EE00062078C016AE0CE010E9462079C01200F1C
:100EF000311FC901DF91CF911F910F9108950F9379
:100F00001F93CF93DF93EC010E9450078C01CE0119
:100F10000E9469079801280F391FC901DF91CF91FD
:100F20001F910F9108954F925F926F927F929F92BF
:100F3000AF92BF92CF92DF92EF92FF920F931F93E7
:100F4000CF93DF93CDB7DEB7A1970FB6F894DEBF8E
:100F50000FBECDBF5C016A017B01922E19A281E018
:100F6000821710F08AE0982E8E010F5D1F4F492CDA
:100F7000512C612C712CC701B601A30192010E9472
:100F800016088C2D929E80191124015011098A3067
:100F900010F4805D01C0895CF801808369017A01E9
:100FA000C114D104E104F10431F7B801C5010E9474
:100FB0005007A1960FB6F894DEBF0FBECDBFDF91EC
:100FC000CF911F910F91FF90EF90DF90CF90BF9046
:100FD000AF909F907F906F905F904F9008952115F4
:100FE000310541F4DC01ED91FC910190F081E02D9F
:100FF000642F09940C9493079A01AB0160E070E0B0
:101000000C94EF07AA1BBB1B51E107C0AA1FBB1F13
:10101000A617B70710F0A61BB70B881F991F5A9584
:10102000A9F780959095BC01CD010895A1E21A2EF3
:10103000AA1BBB1BFD010DC0AA1FBB1FEE1FFF1F7C
:10104000A217B307E407F50720F0A21BB30BE40BCC
:10105000F50B661F771F881F991F1A9469F7609513
:101060007095809590959B01AC01BD01CF010895CD
:10107000EE0FFF1F0590F491E02D0994F894FFCF37
:1010800050696E673A2000636D00000000009D0506
:0A1090002807380567054B058B059E
:00000001FF
